{
  "transactions": [
    {
      "hash": "0x059117e2659702f8abed28ba07ad7cb66717e02456a64f87808f74a682e514c5",
      "transactionType": "CALL",
      "contractName": null,
      "contractAddress": "0x77e6bd5c1988d8d766698f9ceea5c24559b999f8",
      "function": "updateParameters(uint256,uint256)",
      "arguments": [
        "100000000",
        "604800"
      ],
      "transaction": {
        "from": "0xf39fd6e51aad88f6f4ce6ab8827279cfffb92266",
        "to": "0x77e6bd5c1988d8d766698f9ceea5c24559b999f8",
        "gas": "0xc167",
        "value": "0x0",
        "input": "0x161282110000000000000000000000000000000000000000000000000000000005f5e1000000000000000000000000000000000000000000000000000000000000093a80",
        "nonce": "0x3e8",
        "chainId": "0x1"
      },
      "additionalContracts": [],
      "isFixedGasLimit": false
    }
  ],
  "receipts": [
    {
      "status": "0x1",
      "cumulativeGasUsed": "0x8c06",
      "logs": [
        {
          "address": "0x77e6bd5c1988d8d766698f9ceea5c24559b999f8",
          "topics": [
            "0xfaccb0639ff7851e0e24f3b2d9ab03cd62ffb63f5b4d90aaeff85bb078c1fa48"
          ],
          "data": "0x0000000000000000000000000000000000000000000000000000000005f5e1000000000000000000000000000000000000000000000000000000000000093a80",
          "blockHash": "0x8682b66b0f7a8527bcb54289c1ccef1dd7a105c1dcde84d9c4f46aea2737baf8",
          "blockNumber": "0x15799b2",
          "blockTimestamp": "0x682b65d3",
          "transactionHash": "0x059117e2659702f8abed28ba07ad7cb66717e02456a64f87808f74a682e514c5",
          "transactionIndex": "0x0",
          "logIndex": "0x0",
          "removed": false
        }
      ],
      "logsBloom": "0x00000000000000000000010000000000000000800000000000000000000000000000000000000000000000000000000000000000000000000000000000000000000000000000000000000000000000000000000000010000000000000000000000000000000000000000000000000000000000000000000000000000000000000000000000000000000000000000000000000000000000000000000000000000000000000000000000000000000000000000000000000000000000000000000000000000000000040000000000040000000000000000000000000000000000000000000000000000000000000000000000000000000004000000000000000000",
      "type": "0x2",
      "transactionHash": "0x059117e2659702f8abed28ba07ad7cb66717e02456a64f87808f74a682e514c5",
      "transactionIndex": "0x0",
      "blockHash": "0x8682b66b0f7a8527bcb54289c1ccef1dd7a105c1dcde84d9c4f46aea2737baf8",
      "blockNumber": "0x15799b2",
      "gasUsed": "0x8c06",
      "effectiveGasPrice": "0x57c0997a",
      "blobGasPrice": "0x1",
      "from": "0xf39fd6e51aad88f6f4ce6ab8827279cfffb92266",
      "to": "0x77e6bd5c1988d8d766698f9ceea5c24559b999f8",
      "contractAddress": null
    }
  ],
  "libraries": [],
  "pending": [],
  "returns": {},
  "timestamp": 1747674581,
  "chain": 1,
  "commit": "c822ca3"
}